{
  "contractName": "Lottery",
  "abi": [
    {
      "inputs": [],
      "stateMutability": "nonpayable",
      "type": "constructor"
    },
    {
      "inputs": [],
      "name": "manager",
      "outputs": [
        {
          "internalType": "address",
          "name": "",
          "type": "address"
        }
      ],
      "stateMutability": "view",
      "type": "function"
    },
    {
      "inputs": [
        {
          "internalType": "uint256",
          "name": "",
          "type": "uint256"
        }
      ],
      "name": "players",
      "outputs": [
        {
          "internalType": "address payable",
          "name": "",
          "type": "address"
        }
      ],
      "stateMutability": "view",
      "type": "function"
    },
    {
      "inputs": [],
      "name": "winner",
      "outputs": [
        {
          "internalType": "address payable",
          "name": "",
          "type": "address"
        }
      ],
      "stateMutability": "view",
      "type": "function"
    },
    {
      "stateMutability": "payable",
      "type": "receive"
    },
    {
      "inputs": [],
      "name": "getBalance",
      "outputs": [
        {
          "internalType": "uint256",
          "name": "",
          "type": "uint256"
        }
      ],
      "stateMutability": "view",
      "type": "function"
    },
    {
      "inputs": [],
      "name": "pickWinner",
      "outputs": [],
      "stateMutability": "nonpayable",
      "type": "function"
    },
    {
      "inputs": [],
      "name": "allPlayers",
      "outputs": [
        {
          "internalType": "address payable[]",
          "name": "",
          "type": "address[]"
        }
      ],
      "stateMutability": "view",
      "type": "function"
    }
  ],
  "bytecode": "0x608060405234801561001057600080fd5b503373ffffffffffffffffffffffffffffffffffffffff16600260009054906101000a90505050610c0d806100466000396000f3fe6080604052600436106100595760003560e01c806312065fe014610112578063481c6a751461013d5780635d495aea14610168578063b0ec80941461017f578063dfbf53ae146101aa578063f71d96cb146101d55761010d565b3661010d57670de0b6b3a764000034146100a8576040517f08c379a000000000000000000000000000000000000000000000000000000000815260040161009f9061074d565b60405180910390fd5b6000339080600181540180825580915050600190039060005260206000200160009091909190916101000a81548173ffffffffffffffffffffffffffffffffffffffff021916908373ffffffffffffffffffffffffffffffffffffffff160217905550005b600080fd5b34801561011e57600080fd5b50610127610212565b6040516101349190610786565b60405180910390f35b34801561014957600080fd5b506101526102aa565b60405161015f91906107e2565b60405180910390f35b34801561017457600080fd5b5061017d6102d0565b005b34801561018b57600080fd5b5061019461051c565b6040516101a191906108cd565b60405180910390f35b3480156101b657600080fd5b506101bf6105aa565b6040516101cc91906108fe565b60405180910390f35b3480156101e157600080fd5b506101fc60048036038101906101f7919061094a565b6105d0565b60405161020991906108fe565b60405180910390f35b60003373ffffffffffffffffffffffffffffffffffffffff16600260009054906101000a900473ffffffffffffffffffffffffffffffffffffffff1673ffffffffffffffffffffffffffffffffffffffff16146102a4576040517f08c379a000000000000000000000000000000000000000000000000000000000815260040161029b906109c3565b60405180910390fd5b47905090565b600260009054906101000a900473ffffffffffffffffffffffffffffffffffffffff1681565b600260009054906101000a900473ffffffffffffffffffffffffffffffffffffffff1673ffffffffffffffffffffffffffffffffffffffff163373ffffffffffffffffffffffffffffffffffffffff1614610360576040517f08c379a000000000000000000000000000000000000000000000000000000000815260040161035790610a2f565b60405180910390fd5b600360008054905010156103a9576040517f08c379a00000000000000000000000000000000000000000000000000000000081526004016103a090610a9b565b60405180910390fd5b60006103b361060f565b905060008080549050826103c79190610aea565b9050600081815481106103dd576103dc610b1b565b5b9060005260206000200160009054906101000a900473ffffffffffffffffffffffffffffffffffffffff16600160006101000a81548173ffffffffffffffffffffffffffffffffffffffff021916908373ffffffffffffffffffffffffffffffffffffffff160217905550600160009054906101000a900473ffffffffffffffffffffffffffffffffffffffff1673ffffffffffffffffffffffffffffffffffffffff166108fc61048c610212565b9081150290604051600060405180830381858888f193505050501580156104b7573d6000803e3d6000fd5b50600067ffffffffffffffff8111156104d3576104d2610b4a565b5b6040519080825280602002602001820160405280156105015781602001602082028036833780820191505090505b5060009080519060200190610517929190610649565b505050565b606060008054806020026020016040519081016040528092919081815260200182805480156105a057602002820191906000526020600020905b8160009054906101000a900473ffffffffffffffffffffffffffffffffffffffff1673ffffffffffffffffffffffffffffffffffffffff1681526020019060010190808311610556575b5050505050905090565b600160009054906101000a900473ffffffffffffffffffffffffffffffffffffffff1681565b600081815481106105e057600080fd5b906000526020600020016000915054906101000a900473ffffffffffffffffffffffffffffffffffffffff1681565b6000444260008054905060405160200161062b93929190610b9a565b6040516020818303038152906040528051906020012060001c905090565b8280548282559060005260206000209081019282156106c2579160200282015b828111156106c15782518260006101000a81548173ffffffffffffffffffffffffffffffffffffffff021916908373ffffffffffffffffffffffffffffffffffffffff16021790555091602001919060010190610669565b5b5090506106cf91906106d3565b5090565b5b808211156106ec5760008160009055506001016106d4565b5090565b600082825260208201905092915050565b7f506c656173652070617920312065746865720000000000000000000000000000600082015250565b60006107376012836106f0565b915061074282610701565b602082019050919050565b600060208201905081810360008301526107668161072a565b9050919050565b6000819050919050565b6107808161076d565b82525050565b600060208201905061079b6000830184610777565b92915050565b600073ffffffffffffffffffffffffffffffffffffffff82169050919050565b60006107cc826107a1565b9050919050565b6107dc816107c1565b82525050565b60006020820190506107f760008301846107d3565b92915050565b600081519050919050565b600082825260208201905092915050565b6000819050602082019050919050565b6000610834826107a1565b9050919050565b61084481610829565b82525050565b6000610856838361083b565b60208301905092915050565b6000602082019050919050565b600061087a826107fd565b6108848185610808565b935061088f83610819565b8060005b838110156108c05781516108a7888261084a565b97506108b283610862565b925050600181019050610893565b5085935050505092915050565b600060208201905081810360008301526108e7818461086f565b905092915050565b6108f881610829565b82525050565b600060208201905061091360008301846108ef565b92915050565b600080fd5b6109278161076d565b811461093257600080fd5b50565b6000813590506109448161091e565b92915050565b6000602082840312156109605761095f610919565b5b600061096e84828501610935565b91505092915050565b7f796f7520617265206e6f74206d616e6167657200000000000000000000000000600082015250565b60006109ad6013836106f0565b91506109b882610977565b602082019050919050565b600060208201905081810360008301526109dc816109a0565b9050919050565b7f6f6e6c79206d616e616765722063616e20757365207468697300000000000000600082015250565b6000610a196019836106f0565b9150610a24826109e3565b602082019050919050565b60006020820190508181036000830152610a4881610a0c565b9050919050565b7f706c6179657220617265206c657373207468656e203300000000000000000000600082015250565b6000610a856016836106f0565b9150610a9082610a4f565b602082019050919050565b60006020820190508181036000830152610ab481610a78565b9050919050565b7f4e487b7100000000000000000000000000000000000000000000000000000000600052601260045260246000fd5b6000610af58261076d565b9150610b008361076d565b925082610b1057610b0f610abb565b5b828206905092915050565b7f4e487b7100000000000000000000000000000000000000000000000000000000600052603260045260246000fd5b7f4e487b7100000000000000000000000000000000000000000000000000000000600052604160045260246000fd5b6000819050919050565b610b94610b8f8261076d565b610b79565b82525050565b6000610ba68286610b83565b602082019150610bb68285610b83565b602082019150610bc68284610b83565b60208201915081905094935050505056fea2646970667358221220589116a49819377fc3f64ba214414d7eb8445d201df248097a3f333b3086cf0864736f6c634300080b0033",
  "immutableReferences": {},
  "source": "// SPDX-License-Identifier: MIT\r\npragma solidity >=0.5.0 <0.9.0;\r\n\r\ncontract Lottery{\r\n    address payable[] public players;\r\n    address payable public winner;\r\n    address public manager;\r\n    constructor(){\r\n        manager==msg.sender;\r\n\r\n    }\r\n    receive()payable external\r\n    {\r\n        require(msg.value==1 ether,\"Please pay 1 ether\");\r\n        players.push(payable(msg.sender));\r\n    \r\n\r\n    }\r\n    function getBalance() public view returns (uint){\r\n        require(manager==msg.sender,\"you are not manager\");\r\n        return address(this).balance;\r\n    }\r\n\r\n    function random() internal view returns(uint){\r\n       return uint(keccak256(abi.encodePacked(block.difficulty,block.timestamp,players.length)));\r\n    }\r\n\r\n    function pickWinner() public{\r\n        require(msg.sender==manager,\"only manager can use this\");\r\n        require(players.length>=3,\"player are less then 3\");\r\n        uint r= random();\r\n        uint index= r % players.length;\r\n        winner=players[index];\r\n        winner.transfer(getBalance());\r\n        players = new address payable[](0);\r\n    }\r\n    function allPlayers() public view returns(address payable[] memory)\r\n    {\r\n        return players;\r\n    }\r\n}\r\n",
  "sourcePath": "C:\\Users\\Super\\Desktop\\Smart contracts code\\LotteryDapp\\web3lab\\contracts\\Lottery.sol",
  "compiler": {
    "name": "solc",
    "version": "0.8.11+commit.d7f03943.Emscripten.clang"
  },
  "schemaVersion": "3.4.10",
  "updatedAt": "2022-10-19T10:45:50.263Z",
  "devdoc": {
    "kind": "dev",
    "methods": {},
    "version": 1
  },
  "userdoc": {
    "kind": "user",
    "methods": {},
    "version": 1
  }
}